:100000000C9474000C94A3000C94A3000C94A30013
:100010000C94A3000C94A3000C94A3000C94A300D4
:100020000C94A3000C94A3000C94A3000C94A300C4
:100030000C94A3000C94A3000C94A3000C94A300B4
:100040000C94A3000C94A3000C94A3000C94A300A4
:100050000C94A3000C94A3000C94A3000C941C1407
:100060000C94A3000C9479100C9469110C94A300C7
:100070000C94A3000C94A3000C94A3000C94A30074
:100080000C94A3000C94A3000C94A3000C94A30064
:100090000C94AD100C94A8110C94A3000C94A30024
:1000A0000C94A3000C94A3000C94A3000C94A30044
:1000B0000C94A3000C94A3000C94A3000C94A30034
:1000C0000C94A3000C94A3000C94A3000C94E110D6
:1000D0000C94E7110C94A3000C9415110C942612A7
:1000E0000C94A3001C0EE61211241FBECFEFD1E228
:1000F000DEBFCDBF14E0A0E0B2E0EAE8FFE200E03E
:100100000BBF02C007900D92A03FB107D9F71DE0C9
:10011000A0EFB4E001C01D92AC36B107E1F710E0EA
:10012000C8EED0E000E006C022970109FE010BBF37
:100130000E94A717C43ED10780E00807A9F70E94D4
:10014000BB0F0C94C3170C940000FC01DB018281EF
:100150008C93838111968C931197848112968C9342
:100160001297858113968C931397868114968C939E
:100170001497878115968C931597808516968C9386
:100180001697818517968C9388E090E00895FC017E
:10019000DB014C9150E060E070E042835383648364
:1001A000758311968C911197582B428353836483E6
:1001B000758312968C911297682B428353836483C4
:1001C000758313968C911397782B428353836483A2
:1001D000758314964C91149750E060E070E046836C
:1001E00057836087718715968C911597582B468396
:1001F00057836087718716968C911697682B468374
:1002000057836087718717968C91782B4683578325
:100210006087718788E090E0089586E092E0089515
:1002200084E192E00895A0E0B0E0E9E1F1E00C940F
:100230005517FC01DB018C9190E09383828311962A
:100240002C911197922B9383828312964D915D91FD
:100250006D917C9115975D0186E0A80EB11C8A0115
:100260009B010A5F1F4F2F4F3F4F6501CA1ADB0AE0
:10027000E12CF12CC016D106E206F30640F4E501AC
:10028000F9905E01CE010297EC01F882EECFED010C
:10029000C40FD51F1D82CD01059695838483ED0182
:1002A000C40FD51FCE80DF80E884F984465F5F4F9E
:1002B0003D01640E751E8A01222717FD2095322FFD
:1002C0000C0D1D1D2E1D3F1D43018A1A9B0AA12CDA
:1002D000B12C80169106A206B30640F4E3016991A1
:1002E0003E01CE010297EC016883EECFC40ED51E0D
:1002F0009D012C0D3D1DC9010197EC011882415053
:1003000051094A0F5B1F57834683E9010881198110
:100310002A813B81D4E0CD0ED11C3D016C0C7D1CAB
:10032000A601662757FD6095762F400F511F621F6B
:10033000731F43018A1A9B0AA12CB12C84169506BF
:10034000A606B70640F4E301F9903E01CE010297FC
:10035000EC01F882EECF0C0D1D1D9D01200F311F09
:10036000C9010197EC011882D1E0CD1AD108CA0E5B
:10037000DB1ED186C086D90111968C9111971296F9
:100380004C91129750E060E070E0BA015527442785
:10039000582B8C91482B13968C91782B428753873E
:1003A00064877587C8010496CDB7DEB7EEE00C947C
:1003B000711785E392E008958EE492E00895AF927C
:1003C000BF92CF92DF92EF92FF921F93CF93DF9372
:1003D0009C01FB018081D90112968C9381819281CD
:1003E000A381B4815B01C5E0AC0EB11CAC01BD01C1
:1003F0004B5F5F4F6F4F7F4F6501CE1ADF0AE12CD5
:10040000F12CC416D506E606F70650F4E501D9909E
:100410005E017E01D2E0ED1AF108E701D882ECCF4F
:10042000EF01C80FD91F1C823496E901FC83EB83CE
:100430000596DF91CF911F91FF90EF90DF90CF90C5
:10044000BF90AF9008958FE692E0089582E892E021
:10045000089586E394E0089583EA92E0089584EC99
:1004600092E0089589ED92E00895A0E0B0E0EBE31A
:10047000F2E00C945B178C01EB01888190E0A0E026
:10048000B0E0F80182839383A483B5832981922B02
:1004900082839383A483B5832A81A22B828393834F
:1004A000A483B5832B81B22B82839383A483B583EA
:1004B0008C8190E0A0E0B0E086839783A087B1872D
:1004C0002D81922B86839783A087B1872E81A22BC3
:1004D00086839783A087B1872F81B22B86839783EA
:1004E000A087B187488550E060E070E0428753877D
:1004F000648775878985582B4287538764877587FA
:100500008A85682B42875387648775878B85782B0C
:1005100042875387648775878C859D85AE85BF85A7
:100520009E01205F3F4FAC01BD01405F5F4F6F4FA9
:100530007F4F6901CC1ADD0AE12CF12CC416D506D7
:10054000E606F70650F4F901D1909F017F01F2E031
:10055000EF1AF108F701D082ECCF9E01280F391F66
:10056000F90117862F96F801D787C6874096CDB731
:10057000DEB7E8E00C9477178AEF92E008958AE0FE
:1005800093E008958BE293E0089584E493E0089566
:1005900085E693E008958BE793E008958CE993E076
:1005A00008958CEA93E00895FC0144895589668991
:1005B00077894093B30A5093B40A6093B50A709355
:1005C000B60A408D518D628D738D4093AF0A509362
:1005D000B00A6093B10A7093B20A448D558D668D4E
:1005E000778D4093AB0A5093AC0A6093AD0A709339
:1005F000AE0ADC01A458BF4F4D915D916D917C9185
:100600004093A70A5093A80A6093A90A7093AA0A74
:10061000DC01A058BF4F4D915D916D917C9140934D
:10062000A30A5093A40A6093A50A7093A60ADC015A
:10063000AC57BF4F4D915D916D917C9140939F0A56
:100640005093A00A6093A10A7093A20ADC01A65BF2
:10065000BF4F4D915D916D917C9140939B0A50935A
:100660009C0A60939D0A70939E0ADC01A25BBF4FB7
:100670004D915D916D917C914093970A5093980AAA
:100680006093990A70939A0AEE5AFF4F8081918184
:10069000A281B3818093930A9093940AA093950AC0
:1006A000B093960A0895FC0142815381648175815B
:1006B00040938F0A5093900A6093910A7093920A24
:1006C000468157816085718540938B0A50938C0ACF
:1006D00060938D0A70938E0A82859385A485B58573
:1006E0008093870A9093880AA093890AB0938A0A14
:1006F0000895FC0142815381648175814093830A8E
:100700005093840A6093850A7093860A46815781C4
:100710006085718540937F0A5093800A6093810AB7
:100720007093820A82859385A485B58580937B0A20
:1007300090937C0AA0937D0AB0937E0A0895FC01F1
:1007400086899789089584EC92E0089589ED92E076
:1007500008958C549F4FFC018081918108958CE90C
:1007600093E008958CEA93E008958E579B4FFC0127
:1007700080810895A0E0B0E0E0ECF3E00C9459171C
:10078000EC017B018A81DB018C938B8111968C9328
:10079000EC81FD81DF010D900020E9F7CD0101978B
:1007A0006C01CE1ADF0AC601A0E0B0E0FB01828333
:1007B0009383A483B5836C817D81A601C7010696CE
:1007C0000E94BA17EE81FF81DF010D900020E9F74A
:1007D000CD0101975C01AE1ABF0AF701EC0DFD1DBA
:1007E000850120E030E006831783208731879AE077
:1007F000C90ED11C6E817F81A501C7018C0D9D1D85
:100800000E94BA17CA0CDB1CE885F985DF010D9040
:100810000020E9F7CD0101975C01AE1ABF0AF7018C
:10082000EC0DFD1D850120E030E000831183228363
:10083000338394E0C90ED11C68857985A501C70171
:100840008C0D9D1D0E94BA17AC0CBD1C3A852B85E2
:100850009C858D85F701EA0DFB1D308321839283F2
:100860008383C5010496CDB7DEB7EAE00C94751713
:100870000F931F93CF93DF93DC01FB0112968C91B2
:100880001297808313968D919C911497EC01099097
:100890000020E9F72197C81BD90B8E0120E030E03A
:1008A000018312832383348313966D917C91149773
:1008B000AE01CF0105960E94BA17CE010596DF91D1
:1008C000CF911F910F910895A0E0B0E0EAE6F4E027
:1008D0000C945A17EC017B018A81DB018C931196F1
:1008E0001C92119712961C92129713961C92FB0160
:1008F000379640E024E030E05A81C901049645175C
:10090000F0F4AF81B88524E0429FA00DB11D112401
:100910006C9111965C91119712963C9112971396D7
:100920002C91DF0113976C93DF0112975C93DF0129
:1009300011973C9320839C014F5F3496DDCF49850E
:10094000F701E20FF31F408311821282138220E02D
:100950003985F701E80FF91F04962317B0F4AE8527
:10096000BF8534E0239FA00DB11D11246C91119619
:100970005C91119712964C91129713963C9160835B
:100980005183428333832F5FE3CF288920831182F1
:1009900012821382B12C2889B21698F54B2D50E0A3
:1009A000440F551FEB89FC89E40FF51F0190F0817E
:1009B000E02DDF010D900020E9F79D012150310964
:1009C0006901CE1ADF0AF701E80FF91F860120E05E
:1009D00030E000831183228333838C010C5F1F4F2F
:1009E000EB89FC89E40FF51F60817181A601C701C5
:1009F000800F911F0E94BA17C601800F911FB394F8
:100A0000CACFCDB7DEB7E9E00C9476170F931F93EA
:100A1000CF93DF93DC01FB0112968C9112978083B8
:100A200013968C911397818314968C9114978283DB
:100A300015968C911597838316968C9116978483BF
:100A400017968C911797858318968C9118978683A3
:100A500019968C91199787831A968C911A9780878B
:100A60001B968C911B9781871C968C911C97828773
:100A70001D968C911D9783871E968D919C911F9733
:100A8000EC0109900020E9F72197C81BD90B8E01D2
:100A900020E030E004871587268737871E966D9102
:100AA0007C911F97AE01CF0140960E94BA17CE01EC
:100AB0004096DF91CF911F910F9108954F925F92D1
:100AC0007F928F929F92AF92BF92CF92DF92EF92DE
:100AD000FF920F931F93CF93DF93EC018B01DB0108
:100AE000FC908A818F1550F4B4E0FB9EB001112474
:100AF0008F8198850E94F71598878F83FA82F80175
:100B00003796F12C44E050E09E012D5F3F4F8A81E3
:100B1000BA016C5F7F4F6B01F81670F5408150E0B1
:100B200060E070E0742F662755274427DF01139794
:100B30008C91482BDF0112978C91582BDF01119774
:100B40008C91682B4B835C836D837E83A6016F81C0
:100B5000788584E0F89E600D711D1124D9018D9077
:100B60009D90AD90BC90DB018D929D92AD92BC9218
:100B70001397F3943496CBCFF801E40FF51FF08070
:100B800089858F1550F484E0F89EB00111248E857C
:100B90009F850E94F7159F878E879601F98680E0D2
:100BA000FE013A969985D801A20FB31FA9014C5FA7
:100BB0005F4F6A01891748F511969C91119712961B
:100BC0004C91129750E060E070E0BA01552744273D
:100BD000592B9C91492B13969C91792B4A875B87C3
:100BE0006C877D879601AE85BF8594E0899FA00DB7
:100BF000B11D112440815181628173814D935D93B8
:100C00006D937C9313978F5FCDCFFC9088898F1560
:100C100050F46F2D70E0660F771F8B899C890E94BE
:100C2000F7159C8B8B8BC601F88A712C2E0151E134
:100C3000450E511C2889721608F044C0F801E80FCF
:100C4000F91FC080D180E280F3800496F801E80F9C
:100C5000F91FAC01662757FD6095762F4C0D5D1D81
:100C60006E1D7F1D9F01201B310B4901A12CB12C52
:100C700084169506A606B70638F4B1909F01225057
:100C80003109D901BC92EECFC80ED91EF801EC0D86
:100C9000FD1D319710829C0121503109200F311F19
:100CA0003A8B298BC6013B892C89E32FF22FE70D64
:100CB000F11DE70DF11DD2012D913C91318320836F
:100CC0007394B8CFDF91CF911F910F91FF90EF9068
:100CD000DF90CF90BF90AF909F908F907F905F906C
:100CE0004F900895A5E0B0E0E8E7F6E00C945917BE
:100CF0008C016B01643671053CF0FC01EE57FB4F33
:100D00008081882309F485C0DA01ED91FC9101907E
:100D1000F081E02DB801655E7D4FCA0109957C0127
:100D20005801BCEEAB1ABDEFBB0A2FEFF5012083D3
:100D30002EEFF801EB5EFD4F2083F801EA5EFD4FD8
:100D40008083F801E95EFD4F9083890F8095F8015B
:100D5000E85EFD4F8083F801E75EFD4FC082F80139
:100D6000E65EFD4FD08285E090E020E030E0A70114
:100D7000495F5F4F8417950750F4F801E80FF91F9A
:100D8000EC5EFD4F6081260F311D0196F3CFF8E038
:100D9000EF0EF11C400F511FFA01EC5EFD4F209544
:100DA000208321E0E21622E0F206C8F46501C601C4
:100DB0008A199B098E159F0584F4D80112968D918E
:100DC0009C911397F60161916F01DC01ED91FC910B
:100DD0000190F081E02D0995EACFC7011CC08EE695
:100DE00094E09A83898383E08B838DEC93E09D83E9
:100DF0008C83D801ED91FC910190F081E02DAE0142
:100E00004F5F5F4F67E070E0C80109958FEF9FEF7C
:100E100002C080E090E02596EAE00C947517A0E00F
:100E2000B0E0E5E1F7E00C945717EC01CB01BA0113
:100E30008B019C01B7E13595279517950795BA95D4
:100E4000D1F7112722273327011511052105310577
:100E500021F000581C4F2F4F3F4F188219821A82E1
:100E60006B017C01B5E0CC0CDD1CEE1CFF1CBA95BF
:100E7000D1F7CB826B017C0143E0F594E794D794E2
:100E8000C7944A95D1F7CC826B017C015BE0F59465
:100E9000E794D794C7945A95D1F7CD826801790128
:100EA000E4E0CC0CDD1CEE1CFF1CEA95D1F74B01F5
:100EB0005C01F3E1B594A79497948794FA95D1F7E0
:100EC000482D4F704C294E8368017901A4E0F594B8
:100ED000E794D794C794AA95D1F720E030E0A90110
:100EE0000E94E31687FD02C0CF8203C08C2D80686C
:100EF0008F8388E090E0CDB7DEB7ECE00C947317F9
:100F0000EF92FF920F931F93CF93DF938C01EB012E
:100F1000FC014281538164817581CE010E940F07DB
:100F20007C01F8014681578160857185CE018E0D67
:100F30009F1D0E940F07E80EF91EF8014285538598
:100F400064857585CE018E0D9F1D0E940F078E0D45
:100F50009F1DCDB7DEB7E6E00C947917EF92FF92B4
:100F60000F931F93CF93DF938C01EB01FC01428120
:100F7000538164817581CE010E940F077C01F801C5
:100F80004681578160857185CE018E0D9F1D0E941F
:100F90000F07E80EF91EF8014285538564857585B3
:100FA000CE018E0D9F1D0E940F07E80EF91EF8015D
:100FB0004685578560897189CE018E0D9F1D0E94DF
:100FC0000F078E0D9F1DCDB7DEB7E6E00C947917A5
:100FD000EF92FF920F931F93CF93DF938C01EB015E
:100FE000FC014281538164817581CE010E940F070B
:100FF0007C01F8014681578160857185CE018E0D97
:101000009F1D0E940F07E80EF91EF80142855385C7
:1010100064857585CE018E0D9F1D0E940F078E0D74
:101020009F1DCDB7DEB7E6E00C947917A0E0B0E0E5
:10103000ECE1F8E00C945B178C01EB0102960E9446
:1010400006057C01BE01680F791FC80142960E9407
:10105000AE07E80EF91EC12CD12CF801EC0DFD1DD8
:1010600044A155A166A177A1CE018E0D9F1D0E94BE
:101070000F07E80EF91E84E0C80ED11C84E2C816E2
:10108000D10459F7BE016E0D7F1DC801885B9F4FCB
:101090000E94E807E80EF91EC12CD12CF801EC0DD6
:1010A000FD1DEA5AFF4F4081518162817381CE015B
:1010B0008E0D9F1D0E940F07E80EF91E84E0C80EDA
:1010C000D11C84E2C816D10449F7BE016E0D7F1D04
:1010D000C80186589F4F0E94E807E80EF91EC12CF0
:1010E000D12CF801EC0DFD1DE857FF4F40815181D7
:1010F00062817381CE018E0D9F1D0E940F07E80E45
:10110000F91E84E0C80ED11C84E2C816D10449F748
:10111000C701CDB7DEB7E8E00C9477170F931F93A4
:10112000FC01DB01038102950695077010E020E0C9
:1011300030E00D931D932D933C931397448150E021
:1011400060E070E083E0440F551F661F771F8A95AB
:10115000D1F7402B512B622B732B4D935D936D93E5
:101160007C931397058110E020E030E09BE0000FB6
:10117000111F221F331F9A95D1F7042B152B262BF5
:10118000372B0D931D932D933C93139746814F70EE
:1011900050E060E070E083E1440F551F661F771F49
:1011A0008A95D1F7402B512B622B732B4D935D9376
:1011B0006D937C931397868182958F7007810F774B
:1011C00010E020E030E094E0000F111F221F331FD9
:1011D0009A95D1F7082B0115110521053105A1F0CC
:1011E000005813402109310997E1000F111F221FF8
:1011F000331F9A95D1F7042B152B262B372B0D93E4
:101200001D932D933C9313970781007810E020E005
:1012100030E0302F2227112700274D915D916D91ED
:101220007C911397402B512B622B732B4D935D9325
:101230006D937C93139788E090E01F910F91089530
:10124000EF92FF920F931F93CF93DF938C01EB01EB
:10125000BC016E5F7F4FCE010E948E087C01B801F9
:101260006A5F7F4FCE018E0D9F1D0E948E08E80E93
:10127000F91EB801665F7F4FCE018E0D9F1D0E9443
:101280008E088E0D9F1DCDB7DEB7E6E00C94791762
:101290000F931F93CF93DF93EC018C010A5F1F4FD5
:1012A000C8010E942009EC89FD89C8010995DF91D8
:1012B000CF911F910F910895EF92FF920F931F937B
:1012C000CF93DF938C01EB01BC016E5F7F4FCE01AA
:1012D0000E948E087C01B8016A5F7F4FCE018E0D9F
:1012E0009F1D0E948E08E80EF91EB801665F7F4FB1
:1012F000CE018E0D9F1D0E948E08E80EF91EB801CA
:10130000625F7F4FCE018E0D9F1D0E948E088E0D55
:101310009F1DCDB7DEB7E6E00C947917EF92FF92F0
:101320000F931F93CF93DF938C01EB01BC016E5F92
:101330007F4FCE010E948E087C01B8016A5F7F4F0B
:10134000CE018E0D9F1D0E948E08E80EF91EB80179
:10135000665F7F4FCE018E0D9F1D0E948E088E0D01
:101360009F1DCDB7DEB7E6E00C947917A0E0B0E0A2
:10137000ECEBF9E00C9459178C01EB0102960E94FA
:1013800035027C01BE01680F791FC80142960E9498
:101390005C09E80EF91EC12CD12C580184E2A80E7C
:1013A000B11CB5016C0D7D1DCE018E0D9F1D0E94DF
:1013B0008E08E80EF91E84E0C80ED11C84E2C8161F
:1013C000D10479F7BE016E0D7F1DC801885B9F4F68
:1013D0000E948E09E80EF91EC12CD12C580186E519
:1013E000A80EB11CB5016C0D7D1DCE018E0D9F1D8B
:1013F0000E948E08E80EF91E84E0C80ED11C84E21B
:10140000C816D10479F7BE016E0D7F1DC80186583C
:101410009F4F0E948E09E80EF91EC12CD12C08574F
:101420001F4FB8016C0D7D1DCE018E0D9F1D0E94BA
:101430008E08E80EF91E84E0C80ED11C84E2C8169E
:10144000D10479F7C701CDB7DEB7EAE00C94751780
:101450000F931F93CF93DF938C01EC012696CE015F
:101460000E94B609F801EE54FF4F0190F081E02D83
:10147000CE010995DF91CF911F910F910895409171
:10148000DA055091DB056091DC057091DD058091F6
:10149000D8059091D9050E94651210924F0A1092BA
:1014A0004E0A1092510A1092500A1092550A109248
:1014B000540A1092530A1092520AECE1FAE080E0CA
:1014C00090E021913191232B81F4FC01EE0FFF1F5D
:1014D000E45EF54F20E235E0318320838C599F4F45
:1014E000909323058093220504C0019689319105CC
:1014F00041F7ECE1FAE080E090E021913191232B7B
:1015000081F4FC01EE0FFF1FE45EF54F28E035E0AB
:10151000318320838C599F4F90930B0580930A054C
:1015200004C001968931910541F7ECE1FAE080E0D1
:1015300090E021913191232B81F4FC01EE0FFF1FEC
:10154000E45EF54F20EF34E0318320838C599F4FC8
:101550009093F3048093F2040895019689319105E4
:1015600041F70895AAE0B0E0E8EBFAE00C945F17C9
:101570008C0186E594E09A8389831B821C821D82FC
:101580001E821F82188619861A86D801ED91FC9159
:101590000190F081E02DAE014F5F5F4F6AE070E097
:1015A000C80109950E946214F801608771878287DB
:1015B00093872A96E4E00C947B17AEE0B0E0E3EE6C
:1015C000FAE00C9453178C0182E694E09A838983A5
:1015D0001C821B8285E094E09E838D8398878F8395
:1015E0009A8789871B861C861D861E86580182E382
:1015F000A80EB11C7801412C62E0562E612C712C92
:101600006701ACEECA1AABEFDA0AD601ED91FC9194
:101610003097B9F1848195819C838B8380819181FE
:101620009E838D8382819381DC01ED91FC91048006
:10163000F581E02D099598878F83D601ED91FC9176
:1016400082819381DC01ED91FC910680F781E02D90
:1016500009959A8789874B865C866D867E86F80118
:1016600080819181F601A081B18118966D917C9164
:101670001997DC01ED91FC91AE014F5F5F4FC801FE
:101680000995B2E0EB0EF11CEA14FB0409F0B8CFA7
:101690007801412C52E0552E612C712C6701EAEB48
:1016A000CE1AEBEFDE0AF601A081B1811097E1F1CD
:1016B00012968D919C9113979C838B8314968D9198
:1016C0009C9115979E838D83ED91FC9111970480D9
:1016D000F581E02DCD01099598878F83D6018D91F5
:1016E0009C91DC01ED91FC910680F781E02D09953C
:1016F0009A8789874B865C866D867E86D801ED91B8
:10170000FC9180809180F60180819181DC01ED91D6
:10171000FC910280F381E02D0995AE014F5F5F4F90
:10172000BC01C801F4010995F2E0EF0EF11CEA14C6
:10173000FB0409F0B3CFF801EE57FB4F81E0808343
:101740002E96E0E10C946F17AAE0B0E0EAEAFBE025
:101750000C9457178C015B0186E594E09A8389838A
:101760001B821C821D821E821F82188619861A8681
:101770000E9462146B017C01F80180859185A2852D
:10178000B385C81AD90AEA0AFB0AB501CE01019647
:101790000E94C70078EE872E73E0972EA12CB12C03
:1017A000C701B601A50194010E942F1769017A01B2
:1017B0009B01AC018B819C81AD81BE818C0D9D1DF7
:1017C000AE1DBF1D8B839C83AD83BE8360E472E43A
:1017D0008FE090E00E940B17CF80D884E984FA84D0
:1017E000C60ED71EE81EF91ECF82D886E986FA8675
:1017F0000E946214CB80DC80ED80FE80F1E0CF1A85
:10180000D108E108F108A50194010E942F174901B0
:101810005A019B01AC01C818D908EA08FB08F80175
:10182000C486D586E686F786CF80D884E984FA8494
:10183000F6E3DF1AF5E6EF0AF4ECFF0A60E472E47F
:101840008FE090E00E940B17C61AD70AE80AF90A3F
:10185000F801C08AD18AE28AF38AB801605F7F4FBB
:10186000C8010C960E94930F0E946214F801E95778
:10187000FB4F60837183828393832A96ECE00C9400
:101880007317A0E1B0E0E7E4FCE00C9451174C01C1
:101890000E9462146B017C01940129573B4F3E83E7
:1018A0002D83F90180819181A281B381A7019601E5
:1018B000281B390B4A0B5B0BDA01C901893F9A429D
:1018C000A105B10520F0F401EE57FB4F1082A401F1
:1018D00048585B4F588B4F87DA018D919C91892B2B
:1018E00079F0F401E557FB4F80819181A281B381AA
:1018F0008C159D05AE05BF0518F4FA011182108202
:101900003401F0E86F1AFBEF7F0A940124583B4F33
:101910003A832983A4014E575B4F58874F83940124
:1019200020573B4F3C872B87A40141575B4F5E8775
:101930004D87840106581B4F1601270154E1250EDF
:10194000311C411C511C540184E1A80EB11C9401AE
:1019500022583B4F3C832B83A40145575B4F5A874A
:101960004987D40112968D919C911397DC01ED91DA
:10197000FC910680F781E02D09959C0197FD2DC112
:10198000F30180819181820F931F91838083AF85C2
:10199000B8894D915C9147305105E1F4EB81FC81B0
:1019A00080819181AC014F5F5F4F51834083F4018F
:1019B000E80FF91F248BD8018D919C911197019705
:1019C0008D939C93892B09F0BECF28E030E0EF8502
:1019D000F88987C04115510519F52F3F310569F484
:1019E00081E090E0AF85B8898D939C93E985FA8575
:1019F0002082318242825382B4CF0E9462146C19D9
:101A00007D098E099F09663071058105910508F4ED
:101A10009ACFF401EE57FB4F10828EEF9FEF03C178
:101A20004130510599F42E3F310519F482E090E0E0
:101A30002FC0EF85F88911821082AF81B8858C9113
:101A4000811181CFC4010E94B20A8BCF423051056F
:101A500089F4F80131832083AB81BC811D921C92F3
:101A600083E090E0EF85F88991838083D3012D9303
:101A70003C9377CF4330510581F4322F2227F80170
:101A800080819181820F931F9183808384E090E015
:101A9000AF85B8898D939C9364CF4430510599F4F8
:101AA00060E071E00E941B178F3F910539F485E0DB
:101AB00090E0EF85F8899183808353CFAF85B88913
:101AC0001D921C924ECF4530510571F4E981FA8187
:101AD0003183208386E090E0AF85B8898D939C9315
:101AE000F301318320833DCF46305105D1F4322FAD
:101AF0002227A981BA818D919C911197820F931F02
:101B00008D939C9327E030E0EF85F8893183208323
:101B1000D8018D919C91892B09F015CF28E030E0F8
:101B2000E0CF4830510509F00ECFAF85B8891D923E
:101B30001C9260E071E00E941B178F3F910509F035
:101B400002CFA981BA81ED91FC913097B1F4C40123
:101B50000E94B20AC4010E94DD0AF401ED57FB4F56
:101B6000C082D182E282F382ED81FE81C082D18285
:101B7000E282F3828FEF9FEF56C0EA30F10529F43D
:101B8000B501C4010E94A40BECCEE630F10551F47E
:101B9000B5018B859C850E945E0581E0AD85BE8583
:101BA0008C93DFCEEB30F10521F4EF81F8851082C4
:101BB000D8CEE154FE4FEE0FFF1FE80DF91D8081D6
:101BC0009181009709F4BFCEDC01ED91FC91019069
:101BD000F081E02DB5010995C4CEF401EE57FB4F1D
:101BE00080818823F1F084010D571B4FF80180811B
:101BF0009181A281B381A7019601281B390B4A0B61
:101C00005B0BDA01C901853C9940A105B10548F09B
:101C1000C4010E94B20AD801CD92DD92ED92FC92ED
:101C2000139780E090E06096E2E10C946D1786EDEA
:101C300095E00E94410C089582EC94E09093D705C2
:101C40008093D6058DE19BE09093D9058093D805CC
:101C500080E091EEA0E0B0E08093DA059093DB05A0
:101C6000A093DC05B093DD051092580A8AE794E052
:101C70009093670A8093660A1092680A10926E0A1F
:101C800010926D0A10926F0A1092750A1092740ADF
:101C90001092760A10927A0A1092790AEAEEF9E026
:101CA000119211928AE0EC31F807D1F7ECE1FAE0F9
:101CB000119211928AE0EE34F807D1F7EAEEF5E0DE
:101CC000119287E0EA3EF807D9F7EAEEF7E01192C1
:101CD00089E0EA3EF807D9F78CEC94E0909321056F
:101CE0008093200586EB94E090932705809326054A
:101CF00082E994E0909329058093280510922A05A3
:101D000010922B0510922C0510922D0510922E0585
:101D100010922F0510923005109231051092320565
:101D200010923305109234051092350585E094E049
:101D300090933705809336058EE994E090933905AA
:101D40008093380510923A0510923B0510923C059D
:101D500010923D0510923E0510923F0510924005ED
:101D600010924105109242051092430510924405CD
:101D700010924505109246051092470510924805AD
:101D800010924905EAE4F5E0119211921192119234
:101D900085E0EE36F807C1F78AEA94E090936F0584
:101DA00080936E0510927005109271051092720565
:101DB00010927305109274051092750510927605B5
:101DC00010927705109278051092790510927A0595
:101DD00010927B05ECE7F5E01192119211921192AD
:101DE00085E0E03AF807C1F78AEA94E09093A1050C
:101DF0008093A0051092A2051092A3051092A4054D
:101E00001092A5051092A6051092A7051092A8059C
:101E10001092A9051092AA051092AB051092AC057C
:101E20001092AD05EEEAF5E0119211921192119225
:101E300085E0E23DF807C1F784ED92E09093D30589
:101E40008093D20581E090E09093D5058093D405EE
:101E500026E034E0309325052093240548ED54E036
:101E6000509309054093080526E834E030930F05A8
:101E700020930E0510921005109211051092120574
:101E80001092130510921405109215051092160564
:101E900010921705109218051092190510921A0544
:101EA00010921B0563E573E070931D0560931C059C
:101EB00090931F0580931E056FE074E070930D05ED
:101EC00060930C055093F1044093F0043093F704B1
:101ED0002093F6041092F8041092F9041092FA0478
:101EE0001092FB041092FC041092FD041092FE0468
:101EF0001092FF0410920005109201051092020545
:101F00001092030529E733E030930505209304057B
:101F100090930705809306058FE194E09093F50474
:101F20008093F4040895A0E0B0E0E9E9FFE00C94A8
:101F30005B178C01EB01688179818A819B8120E0AC
:101F40003AEC4AE95BE30E942F17F801C080D18088
:101F5000E280F380C20ED31EE41EF51EC082D18241
:101F6000E282F382688379838A839B83CDB7DEB76D
:101F7000E8E00C9477170E946E140E943F0AC8E4B0
:101F8000D1E10E94170E2097E1F30E944811F9CF8A
:101F9000FC0124853585F901E05CFF4F808191814A
:101FA000F901EE5BFF4F20813181821B930B8F7310
:101FB00099270895FC0184859585FC01E05CFF4F1D
:101FC00040815181FC01EE5BFF4F2081318142173E
:101FD000530741F00190F081E02DE80FF91F808157
:101FE00090E008958FEF9FEF0895FC01848595851B
:101FF000FC01E05CFF4F40815181FC01EE5BFF4F33
:10200000208131814217530779F0A081B181A80F57
:10201000B91F8C91208131812F5F3F4F2F73332760
:102020003183208390E008958FEF9FEF0895FC01A6
:1020300081A1882329F0A489B5898C9186FFFBCFE3
:1020400011A20895CF93DF93FC0126853785D9012E
:10205000A05CBF4F8D919C91119701968F7399272A
:10206000E901CE5BDF4F4881598184179507D9F389
:102070000D90BC91A02DA20FB31F6C93A685B785C0
:10208000A05CBF4F11969C938E93A689B7892C9123
:1020900081E090E0078C02C0880F991F0A94E2F754
:1020A000282B2C9381E081A30488F589E02D808181
:1020B0008064808381E090E0DF91CF910895FB01FF
:1020C000E05CFF4F208131812F5F3F4F2F7333271B
:1020D000DB01AE5BBF4F4D915C912417350739F0A2
:1020E000A081B181A60FB71F8C93318320830895FF
:1020F00008951F920F920FB60F9211240BB60F92F4
:102100002F933F934F935F936F937F938F939F93FF
:10211000AF93BF93EF93FF938091C00082FD07C000
:102120008091C6006BE17DE00E945F1002C080914B
:10213000C600FF91EF91BF91AF919F918F917F91D9
:102140006F915F914F913F912F910F900BBE0F9028
:102150000FBE0F901F90189508951F920F920FB603
:102160000F9211240BB60F922F933F934F935F93CF
:102170006F937F938F939F93AF93BF93EF93FF934F
:102180008091C80082FD07C08091CE0063E97CE0A9
:102190000E945F1002C08091CE00FF91EF91BF912D
:1021A000AF919F918F917F916F915F914F913F91EF
:1021B0002F910F900BBE0F900FBE0F901F90189590
:1021C00008951F920F920FB60F9211240BB60F9223
:1021D0002F933F934F935F936F937F938F939F932F
:1021E000AF93BF93EF93FF938091D00082FD07C020
:1021F0008091D6006BE07CE00E945F1002C080916D
:10220000D600FF91EF91BF91AF919F918F917F91F8
:102210006F915F914F913F912F910F900BBE0F9057
:102220000FBE0F901F90189508951F920F920FB632
:102230000F9211240BB60F922F933F934F935F93FE
:102240006F937F938F939F93AF93BF93EF93FF937E
:102250008091300182FD07C08091360163E87BE008
:102260000E945F1002C080913601FF91EF91BF91F3
:10227000AF919F918F917F916F915F914F913F911E
:102280002F910F900BBE0F900FBE0F901F901895BF
:102290008DE19BE00E94C80F892B11F00E947810FD
:1022A0008BEF9AE00E94C80F892B11F00E94AC10AE
:1022B00089ED9AE00E94C80F892B11F00E94E0106E
:1022C00087EB9AE00E94C80F892B11F00E9414112D
:1022D00008951F920F920FB60F9211240BB60F9212
:1022E0002F933F938F939F93EF93FF932091170D1D
:1022F0003091180D8091190D90911A0D28173907FA
:1023000031F48091C1008F7D8093C10014C0E091B1
:10231000190DF0911A0DE952F34F20818091190D9A
:1023200090911A0D01968F73992790931A0D8093AF
:10233000190D2093C600FF91EF919F918F913F91CE
:102340002F910F900BBE0F900FBE0F901F901895FE
:102350001F920F920FB60F9211240BB60F922F936C
:102360003F938F939F93EF93FF9320918F0C309126
:10237000900C8091910C9091920C2817390731F4B0
:102380008091C9008F7D8093C90014C0E091910CA9
:10239000F091920CE15BF34F20818091910C909130
:1023A000920C01968F7399279093920C8093910CC5
:1023B0002093CE00FF91EF919F918F913F912F91AC
:1023C0000F900BBE0F900FBE0F901F9018951F928D
:1023D0000F920FB60F9211240BB60F922F933F93CB
:1023E0008F939F93EF93FF932091070C3091080CEC
:1023F0008091090C90910A0C2817390731F48091CB
:10240000D1008F7D8093D10014C0E091090CF09130
:102410000A0CE953F44F20818091090C90910A0C29
:1024200001968F73992790930A0C8093090C20933F
:10243000D600FF91EF919F918F913F912F910F9037
:102440000BBE0F900FBE0F901F9018951F920F920A
:102450000FB60F9211240BB60F922F933F938F93C9
:102460009F93EF93FF9320917F0B3091800B80918E
:10247000810B9091820B2817390731F4809131013B
:102480008F7D8093310114C0E091810BF091820B1C
:10249000E15CF44F20818091810B9091820B019639
:1024A0008F7399279093820B8093810B2093360131
:1024B000FF91EF919F918F913F912F910F900BBEC4
:1024C0000F900FBE0F901F901895CF92DF92EF9252
:1024D000FF92CF93DF93EC016A017B01411581EEFE
:1024E000580761057105F9F0EC89FD8981E090E0FC
:1024F00008A002C0880F991F0A94E2F7808360E069
:1025000079E08DE390E0A70196010E942F172150FA
:102510003109410951095695479537952795211558
:1025200080E1380798F0EC89FD89108260E874E852
:102530008EE190E0A70196010E942F1721503109EA
:10254000410951095695479537952795E889F989A5
:102550003083EA89FB89208319A2EE89FF894081B3
:1025600081E090E09C010C8C02C0220F331F0A9482
:10257000E2F7422B4083EE89FF8940819C010D8C5C
:1025800002C0220F331F0A94E2F7422B4083EE89E8
:10259000FF8940819C010E8C02C0220F331F0A94D8
:1025A000E2F7422B4083EE89FF8920810F8C02C025
:1025B000880F991F0A94E2F7809582238083DF9128
:1025C000CF91FF90EF90DF90CF900895CF9310922E
:1025D000200B10921F0B88EE93E0A0E0B0E08093F8
:1025E000210B9093220BA093230BB093240B24EE8A
:1025F00034E030931E0B20931D0B4BE15DE05093B4
:102600002A0B4093290B47ED5CE050932C0B409331
:102610002B0B45EC50E050932E0B40932D0B44ECCC
:1026200050E05093300B40932F0B40EC50E0509310
:10263000320B4093310B41EC50E05093340B4093FC
:10264000330B42EC50E05093360B4093350B46EC85
:1026500050E05093380B4093370BC4E0C093390BD4
:10266000F3E0F0933A0BE7E0E0933B0B75E07093F7
:102670003C0B61E060933D0B1092FE0A1092FD0A44
:102680008093FF0A9093000BA093010BB093020B71
:102690003093FC0A2093FB0A43E95CE05093080B5B
:1026A0004093070B4FE45CE050930A0B4093090BF7
:1026B0004DEC50E050930C0B40930B0B4CEC50E066
:1026C00050930E0B40930D0B48EC50E05093100BC1
:1026D00040930F0B49EC50E05093120B4093110BB9
:1026E0004AEC50E05093140B4093130B4EEC50E027
:1026F0005093160B4093150BC093170BF093180BC8
:10270000E093190B70931A0B60931B0B1092DC0A69
:102710001092DB0A8093DD0A9093DE0AA093DF0A11
:10272000B093E00A3093DA0A2093D90A4BE05CE0D8
:102730005093E60A4093E50A47EC5BE05093E80AC1
:102740004093E70A45ED50E05093EA0A4093E90AC6
:1027500044ED50E05093EC0A4093EB0A40ED50E01A
:102760005093EE0A4093ED0A41ED50E05093F00A89
:102770004093EF0A42ED50E05093F20A4093F10A81
:1027800046ED50E05093F40A4093F30AC093F50AE3
:10279000F093F60AE093F70A7093F80A6093F90A47
:1027A0001092BA0A1092B90A8093BB0A9093BC0A9D
:1027B000A093BD0AB093BE0A3093B80A2093B70A1B
:1027C00083E89BE09093C40A8093C30A8FE39BE065
:1027D0009093C60A8093C50A85E391E09093C80A56
:1027E0008093C70A84E391E09093CA0A8093C90A50
:1027F00080E391E09093CC0A8093CB0A81E391E04F
:102800009093CE0A8093CD0A82E391E09093D00A10
:102810008093CF0A86E391E09093D20A8093D10A05
:10282000C093D30AF093D40AE093D50A7093D60AE2
:102830006093D70ACF9108951F920F920FB60F920F
:1028400011242F933F938F939F93AF93BF938091C6
:10285000600D9091610DA091620DB091630D30916A
:102860005F0D23E0230F2D3728F026E8230F019674
:10287000A11DB11D20935F0D8093600D9093610D9C
:10288000A093620DB093630D8091640D9091650DDE
:10289000A091660DB091670D0196A11DB11D8093A9
:1028A000640D9093650DA093660DB093670DBF9175
:1028B000AF919F918F913F912F910F900FBE0F90ED
:1028C0001F9018952FB7F8946091600D7091610D6D
:1028D0008091620D9091630D2FBF0895789484B517
:1028E000826084BD84B5816084BD85B5826085BD0C
:1028F00085B5816085BDEEE6F0E0808181608083F2
:10290000E1E8F0E0108280818260808380818160D4
:102910008083E0E8F0E0808181608083E1EBF0E09B
:10292000808184608083E0EBF0E08081816080833F
:10293000E1E9F0E080818260808380818160808332
:10294000E0E9F0E0808181608083E1EAF0E080816D
:1029500082608083808181608083E0EAF0E0808112
:1029600081608083E1E2F1E0808182608083808108
:1029700081608083E0E2F1E0808181608083EAE72A
:10298000F0E08081846080838081826080838081A8
:10299000816080838081806880831092C100089567
:1029A000CF93DF938230910510F482E090E0E091C4
:1029B0006A0DF0916B0D20E030E0A0E0B0E03097C0
:1029C00039F14081518148175907B8F04817590724
:1029D00071F482819381109729F013969C938E93C2
:1029E00012972CC090936B0D80936A0D27C0211510
:1029F000310531F04217530718F0A901DB0101C07E
:102A0000EF019A01BD01DF010280F381E02DD7CFF4
:102A100021153105F9F0281B390B2430310580F4DC
:102A20008A819B816115710521F0FB01938382836B
:102A300004C090936B0D80936A0DFE01329644C0E2
:102A4000FE01E20FF31F81939193225031093983E4
:102A500028833AC02091680D3091690D232B41F4F1
:102A600020910202309103023093690D2093680D8A
:102A700020910002309101022115310541F42DB75A
:102A80003EB74091040250910502241B350BE091A2
:102A9000680DF091690DE217F307A0F42E1B3F0BB0
:102AA0002817390778F0AC014E5F5F4F24173507C0
:102AB00048F04E0F5F1F5093690D4093680D81934E
:102AC000919302C0E0E0F0E0CF01DF91CF91089553
:102AD000CF93DF93009709F487C0FC0132971382EC
:102AE0001282C0916A0DD0916B0D209781F42081E4
:102AF0003181280F391F8091680D9091690D8217DF
:102B0000930779F5F093690DE093680D6DC0DE01D0
:102B100020E030E0AE17BF0750F412964D915C9163
:102B200013979D014115510509F1DA01F3CFB383E4
:102B3000A28340815181840F951F8A179B0771F4EE
:102B40008D919C911197840F951F0296918380839C
:102B500012968D919C911397938382832115310551
:102B600029F4F0936B0DE0936A0D3EC0D9011396E2
:102B7000FC93EE9312974D915D91A40FB51FEA1748
:102B8000FB0779F480819181840F951F0296D9010A
:102B900011969C938E938281938113969C938E932E
:102BA0001297E0E0F0E08A819B81009719F0FE0126
:102BB000EC01F9CFCE01029628813981820F931F53
:102BC0002091680D3091690D2817390769F4309705
:102BD00029F410926B0D10926A0D02C013821282BA
:102BE000D093690DC093680DDF91CF910895A0E057
:102BF000B0E0EDEFF5E10C945517EC01CB01209717
:102C000019F40E94D014B8C0FE01E60FF71F9E0110
:102C100022503109E217F30708F4ACC0D9010D9135
:102C20001C91119706171707B8F00530110508F425
:102C30009FC0A801445051094617570708F498C08F
:102C400002501109061B170B019311936D937C938E
:102C5000CF010E9468158CC05B01A01AB10A4E0119
:102C6000800E911EA0916A0DB0916B0D612C712C9C
:102C700060E070E0109709F449C0A815B905C9F5DE
:102C8000ED90FC901197670142E0C40ED11CCA146C
:102C9000DB0478F147018A189B08640142E0C40E06
:102CA000D11C1296BC9012971396AC91B5E0CB163E
:102CB000D10440F0B282A38391828082D9018D93A6
:102CC0009C9309C00E5F1F4F0E0D1F1DF90111834C
:102CD0000083EB2DFA2F6115710531F0DB0113969E
:102CE000FC93EE93129744C0F0936B0DE0936A0D42
:102CF0003FC06D917C9111976616770608F43B01F1
:102D0000BD0112960D90BC91A02DB4CF6091680DBD
:102D10007091690D68157905E9F468167906D0F4A3
:102D200040910002509101024115510541F44DB707
:102D30005EB76091040270910502461B570BE417C1
:102D4000F507C0F4F093690DE093680DF9019183E4
:102D500080830EC00E94D0147C01009759F0A80116
:102D6000BE010E94BA17CE010E946815C70104C0B7
:102D7000CE0102C080E090E0CDB7DEB7EEE00C946B
:102D80007117A0E0B0E0E7ECF6E10C945B176C0182
:102D90007A01EB01E60EF71E00E010E0CE15DF052C
:102DA00061F06991D601ED91FC910190F081E02DE7
:102DB000C6010995080F191FF1CFC801CDB7DEB7BD
:102DC000E8E00C94771703D008F481E00895990F98
:102DD0000008550FAA0BE0E8FEEF16161706E807E5
:102DE000F907C0F012161306E407F50798F0621B06
:102DF000730B840B950B39F40A2661F0232B242BDB
:102E0000252B21F408950A2609F4A140A6958FEFF9
:102E1000811D811D0895DB018F939F930E94881768
:102E2000BF91AF91A29F800D911DA39F900DB29F66
:102E3000900D1124089597FB072E16F4009407D0E7
:102E400077FD09D00E94931707FC05D03EF49095BA
:102E500081959F4F0895709561957F4F0895A1E2E8
:102E60001A2EAA1BBB1BFD010DC0AA1FBB1FEE1F04
:102E7000FF1FA217B307E407F50720F0A21BB30B4F
:102E8000E40BF50B661F771F881F991F1A9469F7CB
:102E900060957095809590959B01AC01BD01CF0127
:102EA00008952F923F924F925F926F927F928F92EE
:102EB0009F92AF92BF92CF92DF92EF92FF920F93C9
:102EC0001F93CF93DF93CDB7DEB7CA1BDB0B0FB6D3
:102ED000F894DEBF0FBECDBF09942A883988488890
:102EE0005F846E847D848C849B84AA84B984C88426
:102EF000DF80EE80FD800C811B81AA81B981CE0F1D
:102F0000D11D0FB6F894DEBF0FBECDBFED01089501
:102F10000E94AB17A59F900DB49F900DA49F800DAC
:102F2000911D11240895AA1BBB1B51E107C0AA1FC4
:102F3000BB1FA617B70710F0A61BB70B881F991F5A
:102F40005A95A9F780959095BC01CD0108950790F9
:102F5000F691E02D0994A29FB001B39FC001A39FF9
:102F6000700D811D1124911DB29F700D811D1124C2
:102F7000911D0895FB01DC0102C001900D924150AA
:0A2F80005040D8F70895F894FFCFF1
:102F8A0000006C0D80007374645F6D7367732F5457
:102F9A00696D6500636437313636633734633535B6
:102FAA003263333131666263633266653561376233
:102FBA006332383900726F7373657269616C5F6D61
:102FCA007367732F546F706963496E666F0030615F
:102FDA006435316638386663343438393266386372
:102FEA00313036383430373736343630303500728F
:102FFA006F7373657269616C5F6D7367732F4C6F62
:10300A0067003131616264373331633235393333C2
:10301A00323631636436313833626431326436327F
:10302A003935003966306539386264613635393880
:10303A0031393836646466353361666137613430F4
:10304A006534390067656F6D657472795F6D736792
:10305A00732F506F736532440039333866613635E1
:10306A003730393538346164386537376432333844
:10307A00353239626531336238007374645F6D7357
:10308A0067732F486561646572003231373664654B
:10309A0063616563626365373861626333623936D7
:1030AA00656630343966616265640067656F6D65AF
:1030BA007472795F6D7367732F5175617465726E7F
:1030CA00696F6E006137373938373966616466303F
:1030DA0031363037333466393036623863313963E2
:1030EA00373030340067656F6D657472795F6D7360
:1030FA0067732F566563746F7233003461383432E4
:10310A006236356634313330383464633262313092
:10311A0066623438346561376631370073656E73B9
:10312A006F725F6D7367732F496D75003661363242
:10313A00633664616165313033663466663537619A
:10314A00313332643666393563656332004D6573EF
:10315A00736167652066726F6D2064657669636561
:10316A002064726F707065643A206D65737361676D
:10317A0065206C6172676572207468616E20627581
:10318A00666665722E00696D752F646174610069E7
:10319A006D752F48656164696E675472756500695B
:1031AA006D752F48656164696E67547275655F64F1
:1031BA00656772656500726F7373657269616C5FCA
:1031CA006D7367732F52657175657374506172619F
:1031DA006D0000000000A500C7000D0110010000ED
:1031EA000000BA031301D901DC0100000000380411
:1031FA00DF01230226020000000064045E052902A2
:10320A002C0200000000800720092F023202000071
:10321A00000006053502BC02BF0200000000AE072E
:10322A005C09C202C50200000000E8078E09C80254
:10323A00CB02000000001608B609CE02D102000037
:10324A0000007206410CB50300000000280AA90319
:10325A00AF03B2030000000048099F03A303A603BB
:10326A00000000002210C116C80FF50FDA0F171060
:00000001FF
